{
  "_format": "hh-sol-artifact-1",
  "contractName": "POLKINGRANK",
  "sourceName": "contracts/POLKING.sol",
  "abi": [
    {
      "inputs": [],
      "stateMutability": "nonpayable",
      "type": "constructor"
    },
    {
      "inputs": [
        {
          "internalType": "address",
          "name": "sender",
          "type": "address"
        },
        {
          "internalType": "uint256",
          "name": "tokenId",
          "type": "uint256"
        },
        {
          "internalType": "address",
          "name": "owner",
          "type": "address"
        }
      ],
      "name": "ERC721IncorrectOwner",
      "type": "error"
    },
    {
      "inputs": [
        {
          "internalType": "address",
          "name": "operator",
          "type": "address"
        },
        {
          "internalType": "uint256",
          "name": "tokenId",
          "type": "uint256"
        }
      ],
      "name": "ERC721InsufficientApproval",
      "type": "error"
    },
    {
      "inputs": [
        {
          "internalType": "address",
          "name": "approver",
          "type": "address"
        }
      ],
      "name": "ERC721InvalidApprover",
      "type": "error"
    },
    {
      "inputs": [
        {
          "internalType": "address",
          "name": "operator",
          "type": "address"
        }
      ],
      "name": "ERC721InvalidOperator",
      "type": "error"
    },
    {
      "inputs": [
        {
          "internalType": "address",
          "name": "owner",
          "type": "address"
        }
      ],
      "name": "ERC721InvalidOwner",
      "type": "error"
    },
    {
      "inputs": [
        {
          "internalType": "address",
          "name": "receiver",
          "type": "address"
        }
      ],
      "name": "ERC721InvalidReceiver",
      "type": "error"
    },
    {
      "inputs": [
        {
          "internalType": "address",
          "name": "sender",
          "type": "address"
        }
      ],
      "name": "ERC721InvalidSender",
      "type": "error"
    },
    {
      "inputs": [
        {
          "internalType": "uint256",
          "name": "tokenId",
          "type": "uint256"
        }
      ],
      "name": "ERC721NonexistentToken",
      "type": "error"
    },
    {
      "anonymous": false,
      "inputs": [
        {
          "indexed": true,
          "internalType": "address",
          "name": "owner",
          "type": "address"
        },
        {
          "indexed": true,
          "internalType": "address",
          "name": "approved",
          "type": "address"
        },
        {
          "indexed": true,
          "internalType": "uint256",
          "name": "tokenId",
          "type": "uint256"
        }
      ],
      "name": "Approval",
      "type": "event"
    },
    {
      "anonymous": false,
      "inputs": [
        {
          "indexed": true,
          "internalType": "address",
          "name": "owner",
          "type": "address"
        },
        {
          "indexed": true,
          "internalType": "address",
          "name": "operator",
          "type": "address"
        },
        {
          "indexed": false,
          "internalType": "bool",
          "name": "approved",
          "type": "bool"
        }
      ],
      "name": "ApprovalForAll",
      "type": "event"
    },
    {
      "anonymous": false,
      "inputs": [
        {
          "indexed": true,
          "internalType": "address",
          "name": "from",
          "type": "address"
        },
        {
          "indexed": true,
          "internalType": "address",
          "name": "to",
          "type": "address"
        },
        {
          "indexed": true,
          "internalType": "uint256",
          "name": "tokenId",
          "type": "uint256"
        }
      ],
      "name": "Transfer",
      "type": "event"
    },
    {
      "inputs": [],
      "name": "DEV1",
      "outputs": [
        {
          "internalType": "address",
          "name": "",
          "type": "address"
        }
      ],
      "stateMutability": "view",
      "type": "function"
    },
    {
      "inputs": [
        {
          "internalType": "address",
          "name": "",
          "type": "address"
        },
        {
          "internalType": "uint256",
          "name": "",
          "type": "uint256"
        }
      ],
      "name": "approve",
      "outputs": [],
      "stateMutability": "pure",
      "type": "function"
    },
    {
      "inputs": [
        {
          "internalType": "address",
          "name": "owner",
          "type": "address"
        }
      ],
      "name": "balanceOf",
      "outputs": [
        {
          "internalType": "uint256",
          "name": "",
          "type": "uint256"
        }
      ],
      "stateMutability": "view",
      "type": "function"
    },
    {
      "inputs": [
        {
          "internalType": "uint256",
          "name": "tokenId",
          "type": "uint256"
        }
      ],
      "name": "burn",
      "outputs": [],
      "stateMutability": "nonpayable",
      "type": "function"
    },
    {
      "inputs": [
        {
          "internalType": "uint256",
          "name": "",
          "type": "uint256"
        }
      ],
      "name": "getApproved",
      "outputs": [
        {
          "internalType": "address",
          "name": "",
          "type": "address"
        }
      ],
      "stateMutability": "pure",
      "type": "function"
    },
    {
      "inputs": [
        {
          "internalType": "address",
          "name": "account",
          "type": "address"
        }
      ],
      "name": "grantMinterRole",
      "outputs": [],
      "stateMutability": "nonpayable",
      "type": "function"
    },
    {
      "inputs": [
        {
          "internalType": "address",
          "name": "",
          "type": "address"
        },
        {
          "internalType": "address",
          "name": "",
          "type": "address"
        }
      ],
      "name": "isApprovedForAll",
      "outputs": [
        {
          "internalType": "bool",
          "name": "",
          "type": "bool"
        }
      ],
      "stateMutability": "pure",
      "type": "function"
    },
    {
      "inputs": [
        {
          "internalType": "address",
          "name": "account",
          "type": "address"
        }
      ],
      "name": "isMinter",
      "outputs": [
        {
          "internalType": "bool",
          "name": "",
          "type": "bool"
        }
      ],
      "stateMutability": "view",
      "type": "function"
    },
    {
      "inputs": [],
      "name": "name",
      "outputs": [
        {
          "internalType": "string",
          "name": "",
          "type": "string"
        }
      ],
      "stateMutability": "view",
      "type": "function"
    },
    {
      "inputs": [
        {
          "internalType": "uint256",
          "name": "tokenId",
          "type": "uint256"
        }
      ],
      "name": "ownerOf",
      "outputs": [
        {
          "internalType": "address",
          "name": "",
          "type": "address"
        }
      ],
      "stateMutability": "view",
      "type": "function"
    },
    {
      "inputs": [],
      "name": "rankPOLKING",
      "outputs": [
        {
          "internalType": "contract IPOLKINGRANK",
          "name": "",
          "type": "address"
        }
      ],
      "stateMutability": "view",
      "type": "function"
    },
    {
      "inputs": [
        {
          "internalType": "address",
          "name": "account",
          "type": "address"
        }
      ],
      "name": "revokeMinterRole",
      "outputs": [],
      "stateMutability": "nonpayable",
      "type": "function"
    },
    {
      "inputs": [
        {
          "internalType": "address",
          "name": "to",
          "type": "address"
        },
        {
          "internalType": "string",
          "name": "uri",
          "type": "string"
        }
      ],
      "name": "safeMint",
      "outputs": [
        {
          "internalType": "uint256",
          "name": "",
          "type": "uint256"
        }
      ],
      "stateMutability": "nonpayable",
      "type": "function"
    },
    {
      "inputs": [
        {
          "internalType": "address",
          "name": "from",
          "type": "address"
        },
        {
          "internalType": "address",
          "name": "to",
          "type": "address"
        },
        {
          "internalType": "uint256",
          "name": "tokenId",
          "type": "uint256"
        }
      ],
      "name": "safeTransferFrom",
      "outputs": [],
      "stateMutability": "nonpayable",
      "type": "function"
    },
    {
      "inputs": [
        {
          "internalType": "address",
          "name": "from",
          "type": "address"
        },
        {
          "internalType": "address",
          "name": "to",
          "type": "address"
        },
        {
          "internalType": "uint256",
          "name": "tokenId",
          "type": "uint256"
        },
        {
          "internalType": "bytes",
          "name": "data",
          "type": "bytes"
        }
      ],
      "name": "safeTransferFrom",
      "outputs": [],
      "stateMutability": "nonpayable",
      "type": "function"
    },
    {
      "inputs": [
        {
          "internalType": "address",
          "name": "",
          "type": "address"
        },
        {
          "internalType": "bool",
          "name": "",
          "type": "bool"
        }
      ],
      "name": "setApprovalForAll",
      "outputs": [],
      "stateMutability": "pure",
      "type": "function"
    },
    {
      "inputs": [
        {
          "internalType": "bytes4",
          "name": "interfaceId",
          "type": "bytes4"
        }
      ],
      "name": "supportsInterface",
      "outputs": [
        {
          "internalType": "bool",
          "name": "",
          "type": "bool"
        }
      ],
      "stateMutability": "view",
      "type": "function"
    },
    {
      "inputs": [],
      "name": "symbol",
      "outputs": [
        {
          "internalType": "string",
          "name": "",
          "type": "string"
        }
      ],
      "stateMutability": "view",
      "type": "function"
    },
    {
      "inputs": [
        {
          "internalType": "uint256",
          "name": "tokenId",
          "type": "uint256"
        }
      ],
      "name": "tokenURI",
      "outputs": [
        {
          "internalType": "string",
          "name": "",
          "type": "string"
        }
      ],
      "stateMutability": "view",
      "type": "function"
    },
    {
      "inputs": [
        {
          "internalType": "address",
          "name": "from",
          "type": "address"
        },
        {
          "internalType": "address",
          "name": "to",
          "type": "address"
        },
        {
          "internalType": "uint256",
          "name": "tokenId",
          "type": "uint256"
        }
      ],
      "name": "transferFrom",
      "outputs": [],
      "stateMutability": "nonpayable",
      "type": "function"
    }
  ],
  "bytecode": "0x6080346200034a576040906001600160401b03908083018281118282101762000334578352600b815260206a504f4c4b494e4752414e4b60a81b818301528351928484018481108282111762000334578552600484526352414e4b60e01b82850152825181811162000334576000948554916001958684811c9416801562000329575b8685101462000315578190601f94858111620002c2575b5086908583116001146200025e57899262000252575b5050600019600383901b1c191690861b1786555b80519283116200023e5784548581811c9116801562000233575b858210146200021f57828111620001d7575b50839183116001146200017057600693929186918362000164575b5050600019600383901b1c191690841b1783555b8260085533845252828083209260ff1993838582541617905573d995bff20de2e700d0993bf5f9f56228686d3a7781522091825416179055516111d59081620003508239f35b0151905038806200010a565b848652838620601f198416949386939092885b878110620001bf57508360069710620001a5575b505050811b0183556200011e565b015160001960f88460031b161c1916905538808062000197565b82820151845588959093019291860191860162000183565b8587528487208380860160051c82019287871062000215575b0160051c019086905b82811062000209575050620000ef565b888155018690620001f9565b92508192620001f0565b634e487b7160e01b87526022600452602487fd5b90607f1690620000dd565b634e487b7160e01b86526041600452602486fd5b015190503880620000af565b898052878a208994509190601f1984168b5b8a828210620002ab575050841162000291575b505050811b018655620000c3565b015160001960f88460031b161c1916905538808062000283565b8385015186558c9790950194938401930162000270565b9091508880528689208580850160051c8201928986106200030b575b918a91869594930160051c01915b828110620002fc57505062000099565b8b81558594508a9101620002ec565b92508192620002de565b634e487b7160e01b88526022600452602488fd5b93607f169362000082565b634e487b7160e01b600052604160045260246000fd5b600080fdfe608080604052600436101561001357600080fd5b60003560e01c90816301ffc9a714610bd25750806306fdde0314610b43578063081812fc14610b2c578063095ea7b314610b0d57806323b872dd14610af65780633dd1eb6114610a9f57806342842e0e14610a7157806342966c68146109025780636352211e146108d257806369e2f0fb1461087e57806370a082311461082557806395d89b4114610776578063a22cb4651461074c578063a9b2f94f1461071d578063aa271e1a146106de578063b88d4fde14610671578063c87b56dd1461058e578063ce998e6114610565578063d204c45e1461012e5763e985e9c5146100fb57600080fd5b3461012957604036600319011261012957610114610c7d565b5061011d610c93565b50602060405160008152f35b600080fd5b3461012957604036600319011261012957610147610c7d565b6001600160401b0390602435828111610129573660238201121561012957610179903690602481600401359101610d35565b9033600052600660205261019460ff604060002054166110c4565b60085490600019821461054f5760018201600855604051906101b582610cde565b600082526001600160a01b03918183161561053657836000526002602052826040600020541615801561052e575b156104fb578360005260026020528260406000205416806104c8575b8284166000818152600360209081526040808320805460010190558883526002909152812080546001600160a01b0319168317905586919083906000805160206111608339815191529080a46104af57813b61037d575b505050806000526007602052604060002082519384116103675760209361027d8254610d6c565b601f811161032c575b508493601f82116001146102c95793819293946000926102be575b50508160011b916000199060031b1c19161790555b604051908152f35b0151905085806102a1565b601f1982169483600052866000209160005b8781106103155750836001959697106102fc575b505050811b0190556102b6565b015160001960f88460031b161c191690558580806102ef565b9192886001819286850151815501940192016102db565b610357908360005286600020601f840160051c81019188851061035d575b601f0160051c0190611109565b85610286565b909150819061034a565b634e487b7160e01b600052604160045260246000fd5b604095939194929551602081806103bd630a85bd0160e11b9586835233600484015260006024840152876044840152608060648401526084830190610c3d565b038160008b8b165af16000918161046a575b506104315786863d15610429573d916103e783610d1a565b926103f56040519485610cf9565b83523d6000602085013e5b8251928361042257604051633250574960e11b81528284166004820152602490fd5b8390602001fd5b606091610400565b63ffffffff60e0979395979694961b1603610450575050838080610256565b604051633250574960e11b81529116600482015260249150fd5b9091506020813d6020116104a7575b8161048660209383610cf9565b8101031261012957516001600160e01b0319811681036101295790886103cf565b3d9150610479565b6040516339e3563760e11b815260006004820152602490fd5b600460209081526040600081812080546001600160a01b03191690558381526003909252902080546000190190556101ff565b60405162461bcd60e51b815260206004820152601d60248201526000805160206111808339815191526044820152606490fd5b5060006101e3565b604051633250574960e11b815260006004820152602490fd5b634e487b7160e01b600052601160045260246000fd5b34610129576000366003190112610129576009546040516001600160a01b039091168152602090f35b3461012957602080600319360112610129576004356105ac81610f52565b50600052600781526040600020906040519182600082546105cc81610d6c565b9384845260019186838216918260001461064f575050600114610610575b50506105f892500383610cf9565b61060c604051928284938452830190610c3d565b0390f35b85925060005281600020906000915b8583106106375750506105f8935082010185806105ea565b8054838901850152879450869390920191810161061f565b92509350506105f894915060ff191682840152151560051b82010185806105ea565b346101295760803660031901126101295761068a610c7d565b610692610c93565b90604435606435926001600160401b0384116101295736602385011215610129576106ca6106dc943690602481600401359101610d35565b926106d6838383610da6565b33610f75565b005b34610129576020366003190112610129576001600160a01b036106ff610c7d565b166000526006602052602060ff604060002054166040519015158152f35b3461012957600036600319011261012957602060405173d995bff20de2e700d0993bf5f9f56228686d3a778152f35b3461012957604036600319011261012957610765610c7d565b506024358015151461112057600080fd5b3461012957600036600319011261012957604051600060018281549261079b84610d6c565b928383526020948582821691826000146108055750506001146107c6575b506105f892500383610cf9565b8491508060005281600020906000915b8583106107ed5750506105f89350820101856107b9565b805483890185015287945086939092019181016107d6565b60ff1916858201526105f895151560051b85010192508791506107b99050565b34610129576020366003190112610129576001600160a01b03610846610c7d565b1680156108655760005260036020526020604060002054604051908152f35b6040516322718ad960e21b815260006004820152602490fd5b3461012957602036600319011261012957610897610c7d565b3360005260066020526108b160ff604060002054166110c4565b6001600160a01b03166000908152600660205260409020805460ff19169055005b346101295760203660031901126101295760206108f0600435610f52565b6040516001600160a01b039091168152f35b346101295760208060031936011261012957600435336000526006825261093060ff604060002054166110c4565b60008181526002835260409020546001600160a01b03908116158015610a69575b15610a36578160005260028352604060002054168160008215928315610a0a575b828252600286526040822080546001600160a01b03191690556000805160206111608339815191528280a46109f2576000526007815260406000206109b78154610d6c565b806109be57005b600092601f82116001146109d157505055005b82845283209183916109ee90601f0160051c840160018501611109565b5555005b60249060405190637e27328960e01b82526004820152fd5b60048652604080832080546001600160a01b031916905581835260038752822080548319019055610972565b60405162461bcd60e51b815260048101849052601d60248201526000805160206111808339815191526044820152606490fd5b506001610951565b34610129576106dc610a8236610ca9565b9060405192610a9084610cde565b600084526106d6838383610da6565b3461012957602036600319011261012957610ab8610c7d565b336000526006602052610ad260ff604060002054166110c4565b6001600160a01b03166000908152600660205260409020805460ff19166001179055005b34610129576106dc610b0736610ca9565b91610da6565b3461012957604036600319011261012957610b26610c7d565b50611120565b346101295760203660031901121561112057600080fd5b3461012957600036600319011261012957604051600080549082610b6683610d6c565b91828252602093600190858282169182600014610805575050600114610b9357506105f892500383610cf9565b8491506000805281600020906000915b858310610bba5750506105f89350820101856107b9565b80548389018501528794508693909201918101610ba3565b34610129576020366003190112610129576004359063ffffffff60e01b8216809203610129576020916380ac58cd60e01b8114908115610c2c575b8115610c1b575b5015158152f35b6301ffc9a760e01b14905083610c14565b635b5e139f60e01b81149150610c0d565b919082519283825260005b848110610c69575050826000602080949584010152601f8019910116010190565b602081830181015184830182015201610c48565b600435906001600160a01b038216820361012957565b602435906001600160a01b038216820361012957565b6060906003190112610129576001600160a01b0390600435828116810361012957916024359081168103610129579060443590565b602081019081106001600160401b0382111761036757604052565b90601f801991011681019081106001600160401b0382111761036757604052565b6001600160401b03811161036757601f01601f191660200190565b929192610d4182610d1a565b91610d4f6040519384610cf9565b829481845281830111610129578281602093846000960137010152565b90600182811c92168015610d9c575b6020831014610d8657565b634e487b7160e01b600052602260045260246000fd5b91607f1691610d7b565b6001600160a01b0391821692909183156105365760009282845260209460028652604095838787205416158015610f4b575b15610f1a579084918287526002815284888820541696879133151580610e9c575b509060026000805160206111608339815191529284610e6d575b858352600381528b8320805460010190558683525289812080546001600160a01b0319168517905580a41692838303610e4c5750505050565b6064945051926364283d7b60e01b8452600484015260248301526044820152fd5b868352600481528b832080546001600160a01b0319169055848352600381528b83208054600019019055610e13565b91939450915080610ef1575b15610eb857859291879138610df9565b878688610ed5576024915190637e27328960e01b82526004820152fd5b604491519063177e802f60e01b82523360048301526024820152fd5b503387148015610f13575b80610ea85750600481523385898420541614610ea8565b5081610efc565b60649087519062461bcd60e51b82526004820152601d60248201526000805160206111808339815191526044820152fd5b5085610dd8565b6000818152600260205260409020546001600160a01b03169081156109f2575090565b909192833b610f86575b5050505050565b604051630a85bd0160e11b8082526001600160a01b039384166004830152938316602482015260448101919091526080606482015260209591909316939091908390610fd6906084830190610c3d565b039285816000958187895af1849181611080575b5061104a575050503d600014611042573d61100481610d1a565b906110126040519283610cf9565b81528091843d92013e5b8051928361103d57604051633250574960e11b815260048101849052602490fd5b019050fd5b50606061101c565b919450915063ffffffff60e01b160361106857503880808080610f7f565b60249060405190633250574960e11b82526004820152fd5b9091508681813d83116110bd575b6110988183610cf9565b810103126110b957516001600160e01b0319811681036110b9579038610fea565b8480fd5b503d61108e565b156110cb57565b60405162461bcd60e51b815260206004820152601660248201527521b0b63632b91034b9903737ba10309036b4b73a32b960511b6044820152606490fd5b818110611114575050565b60008155600101611109565b60405162461bcd60e51b8152602060048201526017602482015276536f756c626f756e643a206e6f20617070726f76616c7360481b6044820152606490fdfeddf252ad1be2c89b69c2b068fc378daa952ba7f163c4a11628f55a4df523b3ef536f756c626f756e643a207472616e73666572732064697361626c6564000000a26469706673582212208eae6cf295e1bb278eb3335a6007758f52c6dcb1bfd4e491e397d8948b624b7864736f6c63430008150033",
  "linkReferences": {},
  "deployedLinkReferences": {}
}